:10000000ACC00000C6C00000C4C00000C2C00000F8
:10001000C0C00000BEC00000BCC00000BAC00000EC
:10002000B8C00000B6C00000B4C00000F3C50000B6
:10003000B0C00000AEC00000ACC00000AAC000000C
:10004000A8C00000A6C00000A4C00000A2C000001C
:10005000A0C000009EC000009CC00000EBC10000DA
:1000600098C0000096C0000094C0000092C000003C
:1000700090C000006364696E6F70737578585B00A0
:10008000240350004F004B004B0045004E00200061
:1000900043004F004E00540052004F004C004C00F3
:1000A0004500520000001C0348004F005200490068
:1000B000200043004F002E002C004C005400440050
:1000C0002E00000004030904090229000101008038
:1000D000FA090400000203000000092111010001D7
:1000E0002256000705020340000507058103400072
:1000F0000512010002000000400D0F9200000101F6
:1001000002000105010905A1011500250135004581
:1001100001750195100509190129108102050125B4
:1001200007463B0175049501651409398142650054
:100130009501810126FF0046FF000930093109328F
:1001400009357508950481020600FF092095018193
:10015000020A212695089102C00011241FBECFEF8C
:10016000D2E0DEBFCDBF11E0A0E0B1E0E2E0F8E117
:1001700002C005900D92AE39B107D9F721E0AEE982
:10018000B1E001C01D92A23EB207E1F78AD20C9401
:10019000FF0B36CFEF92FF920F931F93CF93DF9316
:1001A000CDB7DEB768970FB6F894DEBF0FBECDBFF0
:1001B0008E010F5F1F4F1F930F937E0121E1E20E0F
:1001C000F11CFF92EF9221E031E03F932F939F9338
:1001D0008F93CFD767E071E0C70175D70FB6F8945A
:1001E000DEBF0FBECDBF892B19F4109200012BC0CA
:1001F0006EE071E0C70167D7892B11F481E021C05F
:1002000061E171E0C7015FD7892B11F482E019C069
:1002100064E171E0C70157D7892B11F483E011C065
:1002200067E171E0C7014FD7892B11F484E009C061
:100230006AE171E0C70147D7892B11F485E001C05D
:1002400086E08093000162E171E0C8013CD7892B10
:1002500009F493C06EE171E0C80135D7892B09F428
:1002600095C060E271E0C8012ED7892B09F4A0C0C7
:100270006EE571E0C80127D7892B09F4C1C063E29C
:1002800071E0C80120D7892B19F480E190E0BDC04E
:100290006CE971E0C80117D7892B19F480E290E06E
:1002A000B4C062E271E0C8010ED7892B19F480E472
:1002B00090E0ABC065E271E0C80105D7892B09F475
:1002C000A2C068E271E0C801FED6892B19F480E073
:1002D00091E09BC06FE271E0C801F5D6892B19F45B
:1002E00080E092E092C065E371E0C801ECD6892B12
:1002F00019F480E094E089C06CE371E0C801E3D6B2
:10030000892B19F480E098E080C063E471E0C801B3
:10031000DAD6892B19F480E090E177C068E471E0C7
:10032000C801D1D6892B19F480E090E26EC060E557
:1003300071E0C801C8D6892B29F41092C00110922F
:10034000BF016BC068E571E0C801BDD6892BA9F378
:100350006CE571E0C801B7D6892B19F48FEF90E0F6
:1003600054C060E671E0C801AED6892B31F364E673
:1003700071E0C801A8D6892B19F481E090E045C04E
:1003800065E771E0C8019FD6892B19F482E090E0FF
:100390003CC06EE671E0C80196D6892B19F483E063
:1003A00090E033C06BE771E0C8018DD6892B19F45A
:1003B00084E090E02AC062E871E0C80184D6892B0D
:1003C00019F485E090E021C069E871E0C8017BD6AE
:1003D000892B19F486E090E018C06EE871E0C8013E
:1003E00072D6892B19F487E090E00FC067E971E0BD
:1003F000C80169D6892B71F480910001853019F408
:1004000088E090E002C080E890E09093C001809383
:10041000BF0103C086E08093000168960FB6F89490
:10042000DEBF0FBECDBFDF91CF911F910F91FF9027
:10043000EF9008951F920F920FB60F9211241F9301
:100440002F933F934F935F936F937F938F939F93DC
:10045000AF93BF93CF93DF93EF93FF938091DC0132
:100460009091DD0143D6EC01182F8091C80085FFE3
:1004700003C0CE01992778D61D3069F48FE991E049
:1004800089DE10929E0180E2EFE9F1E0DF011D922A
:100490008A95E9F70EC01A3061F0E0919E01E032D2
:1004A00040F481E08E0F80939E01F0E0E156FE4F14
:1004B000C083FF91EF91DF91CF91BF91AF919F9159
:1004C0008F917F916F915F914F913F912F911F91EC
:1004D0000F900FBE0F901F90189584B7877F84BF31
:1004E0000FB6F894A89580916000886180936000B1
:1004F000109260000FBE90E080E80FB6F8948093F1
:100500006100909361000FBE76C30895089542E3A1
:1005100060EC82E0B0D242E361EC81E0ACC2FC016D
:1005200098E0DF01892F1D928A95E9F780E883839F
:100530008483858386839283809100018230D9F001
:1005400028F4882349F0813091F008958430D9F05F
:10055000B0F08530E1F00895208131818091BF01B4
:100560009091C001822B932B918380830895809179
:10057000BF01838308958091BF0184830895809192
:10058000BF01858308958091BF018683089580917E
:10059000BF0182830895CF93DF93CDB7DEB728974D
:1005A0000FB6F894DEBF0FBECDBF8091C70181307A
:1005B00019F08930B1F028C08091C601813A21F547
:1005C000CE010196ACDF8091E800877F8093E80040
:1005D00068E070E0CE01019657D18091E8008B77FA
:1005E00011C08091C601813279F48091E800877F43
:1005F0008093E80067E070E0CE010196A1D1809180
:10060000E8008E778093E80028960FB6F894DEBF56
:100610000FBECDBFDF91CF910895CF93DF93CDB7BC
:10062000DEB728970FB6F894DEBF0FBECDBF80911E
:10063000C501843069F582E08093E9008091E8008B
:1006400082FF10C08091E80085FF07C040E050E0C5
:1006500067E070E0CE010196CDD08091E8008B7705
:100660008093E80081E08093E9008091E80080FFBA
:100670000FC0CE01019653DF40E050E068E070E02B
:10068000CE0101966DD08091E8008E778093E800CE
:1006900028960FB6F894DEBF0FBECDBFDF91CF9185
:1006A000089587E690E09093CD008093CC0086E09B
:1006B0008093CA001092C80088E18093C900539AC1
:1006C0005A9A80E090E0E1D478948091C9008068E3
:1006D0008093C90002DF7894A0DFA2D4FDCF292F38
:1006E000332723303105E1F058F42130310599F0FA
:1006F0002230310569F589E290E028EC30E02CC029
:100700002132310501F12232310511F586E590E003
:1007100023E031E021C082E190E021EF30E01CC015
:1007200099278130910549F028F0029789F4E0E893
:10073000F0E005C0E4ECF0E002C0E6EAF0E084910D
:1007400090E09F0109C089E090E02AED30E004C00C
:1007500080E090E020E030E0FA01318320830895CA
:10076000CF92DF92EF92FF920F931F93CF93DF937D
:10077000EC018B017A01D3D1811133C0E114F10472
:1007800039F0F70180819181081B190BC80FD91F1F
:10079000C12CD12C0115110519F18091E80085FDBE
:1007A00016C08091E8008E778093E80039D4E11478
:1007B000F10449F0F70180819181C80ED91ED182E0
:1007C000C08285E00EC0ABD1882321F30AC0899195
:1007D0008093F10001501109FFEFCF1ADF0ADACF41
:1007E00080E0DF91CF911F910F91FF90EF90DF900C
:1007F000CF900895CF92DF92EF92FF920F931F93C5
:10080000CF93DF93EC018B017A0189D1811133C041
:10081000E114F10439F0F70180819181081B190B73
:10082000C80FD91FC12CD12C0115110519F18091C8
:10083000E80085FD16C08091E8008B778093E80082
:10084000EFD3E114F10449F0F70180819181C80EE2
:10085000D91ED182C08285E00EC061D1882321F3E8
:100860000AC08091F100899301501109FFEFCF1A5E
:10087000DF0ADACF80E0DF91CF911F910F91FF90D7
:10088000EF90DF90CF9008952091CC013091CD0171
:100890002617370748F06115710539F42091E800F3
:1008A0002E772093E80001C0B901FC0120E061151A
:1008B000710569F18091C5018823E1F18530E1F18D
:1008C0008091E80083FD3AC08091E80082FD2CC051
:1008D0008091E80080FFEBCF8091F20090E06115FD
:1008E000710551F08034910538F421912093F10085
:1008F000615071090196F3CF21E08034910509F030
:1009000020E08091E8008E778093E800D0CF21111D
:10091000D1CF0AC08091C501882361F0853061F094
:100920008091E80083FD0AC08091E80082FFF2CF49
:1009300080E0089582E0089583E0089581E00895BD
:100940006115710529F42091E8002B772093E800C8
:10095000FC016115710521F18091C501882341F1E8
:10096000853041F18091E80083FD20C08091E8004E
:1009700082FFEFCF8091F200882331F08091F10067
:10098000819361507109B1F78091E8008B77809372
:10099000E800DFCF8091C501882351F0853051F008
:1009A0008091E80080FFF6CF80E0089581E008950F
:1009B00082E0089583E008952091CC013091CD012B
:1009C0002617370748F06115710539F42091E800C2
:1009D0002E772093E80001C0B901FC0120E06115E9
:1009E000710581F18091C501882309F43EC08530ED
:1009F00009F43DC08091E80083FD3BC08091E80090
:100A000082FD2DC08091E80080FFE9CF8091F20047
:100A100090E06115710559F08034910540F42491FE
:100A20002093F1003196615071090196F2CF21E0D7
:100A30008034910509F020E08091E8008E77809362
:100A4000E800CDCF2111CECF0AC08091C501882307
:100A500061F0853061F08091E80083FD0AC08091EB
:100A6000E80082FFF2CF80E0089582E0089583E0FD
:100A7000089581E00895982F953068F59093E900E6
:100A8000981739F07091EC002091ED005091F00032
:100A900003C0242F762F50E021FD02C09F5FECCFD2
:100AA0003091EB003E7F3093EB003091ED003D7FC5
:100AB0003093ED003091EB0031603093EB00709398
:100AC000EC002093ED005093F0002091EE0027FD04
:100AD000E5CF80E008958F708093E90081E008956C
:100AE0008091C60187FF11C08091E80082FD05C09A
:100AF0008091C5018111F8CF11C08091E8008B77FA
:100B00000BC08091C501882349F08091E80080FFE7
:100B1000F8CF8091E8008E778093E80008952091C7
:100B2000E4003091E50095E64091EC00842F81705F
:100B300040FF23C08091E80080FD1DC08091C50169
:100B4000882399F0853099F08091EB0085FD11C0E4
:100B50004091E4005091E5002417350729F39150A6
:100B600011F09A01E1CF84E0089582E0089583E0D6
:100B7000089581E0089580E008954091E80042FFE3
:100B8000DDCF089541D043D08091D8008F778093F6
:100B9000D8008091D80080688093D8008091D800D8
:100BA0008F7D8093D80084E089BD86E089BD09B43B
:100BB00000FEFDCF1092C5011092C1011092C30139
:100BC0001092C20142E360E080E055DF8091E100D5
:100BD0008E7F8093E1008091E20081608093E2004B
:100BE0008091E20088608093E2008091E0008E7F37
:100BF0008093E0000895E3E6F0E080818E7F8083BB
:100C000081E08093C401BECF1092E200089510925B
:100C1000E10008951F920F920FB60F9211242F93A7
:100C20003F934F935F936F937F938F939F93AF9374
:100C3000BF93EF93FF938091E10082FF0AC0809100
:100C4000E20082FF06C08091E1008B7F8093E1008B
:100C5000E6D18091E10080FF17C08091E20080FF23
:100C600013C08091E2008E7F8093E2008091E200C9
:100C700080618093E2008091D80080628093D800E8
:100C800019BC1092C50142DC8091E10084FF2FC0A5
:100C90008091E20084FF2BC084E089BD86E089BD9D
:100CA00009B400FEFDCF8091D8008F7D8093D800DD
:100CB0008091E1008F7E8093E1008091E2008F7E41
:100CC0008093E2008091E20081608093E200809155
:100CD000C101882311F084E007C08091E30087FD03
:100CE00002C081E001C083E08093C5010EDC8091E9
:100CF000E10083FF22C08091E20083FF1EC080914B
:100D0000E100877F8093E10082E08093C50110922B
:100D1000C1018091E1008E7F8093E1008091E2002B
:100D20008E7F8093E2008091E20080618093E200F8
:100D300042E360E080E09FDE72D1FF91EF91BF91CE
:100D4000AF919F918F917F916F915F914F913F9163
:100D50002F910F900FBE0F901F9018951F93CF9358
:100D6000DF93CDB7DEB7AA970FB6F894DEBF0FBEFC
:100D7000CDBFE6ECF1E08091F100819321E0EE3C03
:100D8000F207C9F708DC8091E80083FF30C1809149
:100D9000C6019091C701953009F483C030F49130B9
:100DA000A9F168F0933091F122C1983009F4EFC0B5
:100DB000993009F4FBC0963009F019C194C080380D
:100DC00021F0823809F013C108C08091C2019091CE
:100DD000C301992389F082600FC08091CA018F708E
:100DE000853008F004C18093E9008091EB0085FB19
:100DF000882780F91092E9009091E800977F9093FE
:100E0000E8008093F1001092F100CCC0282F2D7FD4
:100E100009F0EDC0882319F0823061F0E8C08091BC
:100E2000C801813009F0E3C0933009F080E080937D
:100E3000C3012EC08091C80181112AC08091CA01CE
:100E40008F702FEF280F243008F0D1C08093E90075
:100E50002091EB0020FF1CC0933021F48091EB0027
:100E6000806214C09091EB0090619093EB0021E0C0
:100E700030E0A90102C0440F551F8A95E2F7409364
:100E8000EA001092EA008091EB0088608093EB000A
:100E90001092E9008091E800877F8093E80020DECF
:100EA000A6C08111A4C01091C8011F778091E300F2
:100EB0008078812B8093E3008091E800877F809386
:100EC000E8000EDE8091E80080FFFCCF8091E30017
:100ED00080688093E300111102C082E001C083E0CA
:100EE0008093C50184C08058823008F080C0809112
:100EF000C8019091C9018C3D53E0950771F583E0DD
:100F00008A838AE289834FB7F894DE01139620E042
:100F10003EE051E2E32FF0E050935700E49120FFD0
:100F200003C0E295EF703F5FEF708E2F90E0EA30E4
:100F300010F0C79601C0C0968D939D932F5F24310A
:100F400049F74FBF8091E800877F8093E8006AE20D
:100F500070E0CE01019698DC14C06091CA017091D6
:100F6000CB01AE014F5F5F4FBADBBC01892B09F4A7
:100F70003EC09091E800977F9093E80089819A8124
:100F80001BDD8091E8008B778093E80030C08038CB
:100F900071F58091E800877F8093E8008091C1011E
:100FA0008093F1008091E8008E7777CF81111FC088
:100FB0008091C8019091C90199270297C4F480914A
:100FC000E800877F8093E8008091C8018093C10189
:100FD00087DD8091C101811106C08091E30087FD0A
:100FE00002C081E001C084E08093C50190DA809165
:100FF000E80083FF0AC08091E800877F8093E800C3
:101000008091EB0080628093EB00AA960FB6F89473
:10101000DEBF0FBECDBFDF91CF911F910895089520
:10102000CF938091C501882399F0C091E900CF70DA
:101030009091EC00892F817090FD80E8C82B109270
:10104000E9008091E80083FD89DECF70C093E9005C
:10105000CF9108959091C80095FFFCCF8093CE006A
:1010600080E090E008958091C80087FF08C08091DB
:10107000C80087FF07C08091CE0090E008958EEFF2
:101080009FEF08958FEF9FEF0895FC01892B59F48E
:101090008EEC91E09093DD018093DC019093DF0171
:1010A0008093DE01FC018EE0DF011D928A95E9F755
:1010B00083E083838AE298E09187808783E398E0E6
:1010C000938782870895FB01DC018D9181341CF0A8
:1010D0008B350CF4805E619161341CF06B350CF43F
:1010E000605E861B611189F3990B0895CF93DF939E
:1010F000EC012B8120FF33C026FF0AC02F7B2B83FE
:101100008E819F8101969F838E838A8190E029C082
:1011100022FF0FC0E881F9818081082E000C990B15
:10112000009719F420622B831AC03196F983E88363
:101130000EC0EA85FB85099597FF09C02B810196B2
:1011400011F080E201C080E1822B8B8308C02E81E8
:101150003F812F5F3F4F3F832E83992702C08FEF40
:101160009FEFDF91CF9108956091DE017091DF01D3
:10117000B7C2AEE0B0E0EEEBF8E01AC385E08C83D6
:101180008B899C899A838983AE01495E5F4F6D8903
:101190007E89CE01019690D12E96E2E025C320FDF6
:1011A00009C0FC0123FD05C022FF02C073836283D6
:1011B00051834083089544FD17C046FD17C0AB011D
:1011C000BC01DA01FB01AA0FBB1FEE1FFF1F109429
:1011D000D1F74A0F5B1F6E1F7F1FCB01BA01660F4D
:1011E000771F881F991F09C033E001C034E0660FE4
:1011F000771F881F991F3150D1F7620F711D811D14
:10120000911D08950F931F93CF93DF938C01C80115
:101210006DDFEC0197FD06C050D2892BC1F7B801F4
:10122000CE019AD2CE01DF91CF911F910F910895F7
:101230008F929F92AF92BF92EF92FF920F931F9364
:10124000CF93DF938C01D62F7A01B22E4FDF9C0112
:1012500033272B32310531F02D32310559F48B2DE6
:101260008068B82ED15011F480E061C0C8013EDF23
:1012700097FDFACFCB2DCD7F2B2D2073F9F4803342
:10128000E9F4AA24AA94AD0E09F43EC0C8012EDFE9
:1012900097FD3AC09C012F7D33272835310541F455
:1012A000C264D25089F1C80121DF97FF07C02CC06A
:1012B000B6FE02C0C26001C0C261DA2D812C912C41
:1012C000540120ED280F283078F0C4FF03C0B80186
:1012D00043D217C02A3040F0C6FFF9CF2F7D3FEE32
:1012E000320F3630A0F727504C2FC501B40163DF11
:1012F0004B015C01C260D15051F0C801F7DE97FF8D
:10130000E0CFC1FD04C0B0CF812C912C5401C7FFA8
:1013100008C0B094A09490948094811C911CA11C4E
:10132000B11C2C2FB501A401C70139DF81E0DF9189
:10133000CF911F910F91FF90EF90BF90AF909F9032
:101340008F900895A0E2B0E0E7EAF9E024C25C01E2
:10135000962E7A01F9018E010F5F1F4F680180E21E
:10136000D8011D928A95E9F7D50113968C9080E0FB
:1013700090E0612C712C30E061E070E083FC2591FD
:1013800083FE21918F01522E211103C080E090E055
:1013900090C02E3511F4009751F1432F50E04817BB
:1013A00059073CF42D3559F12D3219F4772009F104
:1013B00003C0772009F468C0452D469546954695AB
:1013C000D601A40FB11D452D47708B0102C0000F3F
:1013D000111F4A95E2F7A8015C91452B4C936514C7
:1013E00059F0561410F45394E7CF5A94E5CF31E0F6
:1013F00004C07724739401C0712C0196BFCF77206D
:1014000019F08E8180628E83311103C08824839409
:1014100017C0F6019E012F5D3F4F8081809581931B
:101420002E173F07D1F7F2CFE114F10429F0D701CD
:101430008C93F70131967F019A94812C9920E9F0E1
:10144000C50154DE97FD17C0FC01FF2723E0F59589
:10145000E7952A95E1F7EC0DFD1D208130E0AC0108
:101460004770552702C0359527954A95E2F720FD2C
:10147000DBCFB50171D1811089CFE114F10411F0F6
:10148000D7011C92C80115C0422F46954695469536
:10149000D601A40FB11D422F47708B0102C0000F6F
:1014A000111F4A95E2F7A8015C91452B4C93622EDF
:1014B000A4CFA096EFE08BC1A0E0B0E0E1E6FAE0B7
:1014C0006AC16C01EB015A01FC0117821682512C92
:1014D000F601E380FE01E3FC8591E3FE8191182F84
:1014E000EF01882309F4E0C090E0E7D0892B19F0E0
:1014F000C60188DEEDCF153241F4FE01E3FC159103
:10150000E3FE1191EF01153271F4C601EFDD97FD95
:10151000C9C0412F50E09C01332724173507C1F281
:10152000B6011AD1C1C01A3239F4E3FC1591E3FEB9
:101530001191EF0101E001C000E0F12C20ED210F3D
:101540002A3078F402606F2D70E080E090E040E295
:1015500032DEF62EFE01E3FC1591E3FE1191EF0160
:10156000EDCF01FF03C0F11003C09EC0FF24FA9429
:10157000183619F01C3651F010C0FE01E3FC15912D
:10158000E3FE1191EF01183641F408600460FE019A
:10159000E3FC1591E3FE1191EF01112309F484C0DE
:1015A000612F70E084E790E090D0892B09F47CC033
:1015B00000FD07C0F50180809180C50102965C01A5
:1015C00002C0812C912C1E3649F4F60146815781C8
:1015D00060E070E0202FC401E2DD7ACF1336A1F481
:1015E00001FD02C0FF24F394C60180DD97FD5AC0BF
:1015F0008114910429F0F4018083C40101964C0107
:10160000FA94F110F1CF4AC01B3551F49E01A401A8
:101610006F2DC60197DEEC01892B09F03FC039C060
:10162000C601F0DD97FD3EC01F3649F128F414369F
:1016300021F1193639F125C0133771F01537E9F06A
:1016400020C08114910429F0F4016082C401019644
:101650004C01FA94FF2059F0C60148DD3C0197FD8A
:1016600006C02BD0892B69F3B601C30175D0811454
:101670009104A1F0F401108211C0006203C0006166
:1016800001C00064202FA4016F2DC601D1DD81119E
:1016900005C0F6018381807329F406C000FD18CFD0
:1016A000539416CF552019F0852D90E002C08FEF8E
:1016B0009FEFCDB7DEB7EFE08AC0911166C08032F0
:1016C00019F089508550D0F70895FC010590061651
:1016D00021F00020D9F7C00108953197CF01089576
:1016E0000F931F93CF93DF93FB01238121FD03C051
:1016F0008FEF9FEF2CC022FF16C0468157812481B7
:1017000035814217530744F4A081B1819D012F5FB9
:101710003F4F318320838C93268137812F5F3F4F4A
:101720003783268314C08B01EC01FB010084F18513
:10173000E02D0995892BE1F6D80116968D919C91A3
:101740001797019617969C938E931697CE01DF916B
:10175000CF911F910F910895FB01238120FF12C0AB
:1017600026FD10C08F3F3FEF930761F082832F7DEE
:1017700020642383268137812150310937832683D2
:10178000992708958FEF9FEF089599278827089547
:101790002F923F924F925F926F927F928F929F9281
:1017A000AF92BF92CF92DF92EF92FF920F931F936F
:1017B000CF93DF93CDB7DEB7CA1BDB0B0FB6F89420
:1017C000DEBF0FBECDBF09942A88398848885F8460
:1017D0006E847D848C849B84AA84B984C884DF80D1
:1017E000EE80FD800C811B81AA81B981CE0FD11DB5
:1017F0000FB6F894DEBF0FBECDBFED010895F8948B
:02180000FFCF18
:1018020006257320257300427574746F6E004C5860
:10181200004C5900525800525900484154004200AD
:1018220041005A4C005A520053454C454354005310
:1018320054415254004C434C49434B0052434C498F
:10184200434B00484F4D45004341505455524500CB
:1018520052454C45415345004D494E004D415800BB
:10186200544F5000544F505F524947485400424F22
:1018720054544F4D5F524947485400424F54544FBD
:101882004D00424F54544F4D5F4C45465400544F07
:0E189200505F4C4546540043454E54455200AD
:00000001FF
